:020000008B2B48
:10000600423083120313FD00FD0B07280000080091
:100016001D3083120313FC009130FD00FD0B1128E7
:06002600FC0B112808008C
:0A002C0000000000000000000800C2
:0E003600F201F101F001F801F30100300800C1
:1000440083120313D71B2828881329288817571BC2
:100054002D2808132E280817D71A32288812332877
:100064008816571A37280812382808163F183C28CB
:1000740008153D280811881516208811D719442819
:100084008813452888175719492808134A28081738
:10009400D7184E2888124F28881657185328081244
:1000A400542808163F185828081559280811881587
:1000B400162088113F1C60280B20612803200800AB
:0800C400FA1FF21300300800DE
:1000CC0083120313F801F9011030FC00710DF80DC7
:1000DC00F90D7408F8027508031C750FF902031862
:1000EC007E287408F80775080318750FF9070310B4
:0A00FC00F00DF10DFC0B6C2808005C
:100106007B15FB1F8D280130F300F201F101F00190
:08011600FA0DF20CFF300800A5
:0E011E00831203133E088A003D088200080089
:10012C00FB14FB1FA028FF30F300F200F100F000DD
:08013C00FA0DF20CFF3008007F
:06014400FB15FF3008006E
:10014A0083120313D501053055020318B328550845
:10015A005407840020308000D50AA828550854077F
:10016A0084008001D50355085407D6000A30F400EC
:10017A00F5015208F0005308F10066207808F000F3
:10018A007908F1003030F0075608840070088000C2
:10019A000A30F400F5015208F0005308F100662015
:1001AA007008D2007108D30000307106031DDF28E1
:1001BA0000307006031DE228E428D503B828080099
:1001CA007B14FB1FF028F201FA1FFF30F200F10046
:0A01DA00F000FA0DF20CFF300800EF
:1001E400A0017208031D07297108F2007008F100CC
:1001F400F001A0157208031D07297108F200F1012E
:10020400A01120167208031915292008F302031DF2
:10021400031C19290310F21B1D29F00DF10DF20D19
:10022400F30B0D2919290130FC001B202029023071
:0E023400FC00832020290430FC00622008001A
:10024200831203133F105208D70022203F140800E4
:1002520083120313FB017308031966297208FA005B
:10026200F2178E30F302F31F6929F309F30A0830FB
:100272007302031C4C29F300F10D7208F100F20124
:1002820008307302031C4C29F300F10DF1017308CD
:10029200031D031054297308031954290310F20C87
:1002A200F10CF30B4F297B1B711C5E29031C5E2989
:1002B200F10A0319F20AF21B7529FA1F7829F209C9
:1002C200F109F10A0319F20A7829F201F1017829F8
:1002D2007B14FB1F7B29F201FA1F7B29FF30F200FE
:1002E200F100FA0DF20C7B290130FC007D2900306F
:1002F200FC007D29FF30FC00FC0803198129E52060
:0A0302007108F0007208F100080015
:10030C00831203137408003A031DA1297508003ADF
:10031C00031DA1297608003A031DA1297708003A8C
:10032C00031DA129FF30F000FF30F1007F30F200F7
:10033C00FF30F3003C2A8312031377080319302A89
:10034C0073080319332A720876068039FA00F217FB
:10035C00F617A0017208F8007108FC007008FD0087
:10036C007408FD027508031C750FFC027608031C4B
:10037C00760FF802F801FC01FD01031CCC290310D7
:10038C00F20CF10CF00CF80C0130A0007708F30221
:10039C00031CD6297E302007F3070318362ADB29E5
:1003AC007E302007F307031C392A1830FA07FD0D9D
:1003BC00FC0DF80DF00DF10DF20DA00D7408F0020E
:1003CC007508031C750FF1027608031C760FF202F8
:1003DC00760DA004201CF4297D14FF297408F00765
:1003EC0075080318750FF10776080318760AF207DB
:1003FC007D10FA031F307A05031DDD297B1B7D1C44
:10040C00262A0310F00DF10DF20DA00D7408F00268
:10041C007508031C750FF1027608031C760FF202A7
:10042C00760D20040139FD070318FC0A0319F80A9C
:10043C00031D262AF80CFC0CFD0CF30A0319362AB2
:10044C00FA1FF8137808F2007C08F1007D08F00020
:10045C0000303B2A0130A2203B2A02301B203B2AD1
:0E046C00043096203B2A083083200000080050
:10047A0083120313CE01CF014908D0004A08D100E4
:10048A0080304A06F00080307002031D4E2A003088
:10049A00490203185C2A0130CE000030CF00490817
:1004AA00003CD0004A08031C013ED101D102500889
:1004BA00D2005108D3004B08D400A5200630CC0046
:1004CA000030CD004D08003C031D6D2A4C08003C4D
:1004DA000318882A4C084B07F20001304C02F0003E
:1004EA000030031C013E4D02F10070084B078400E6
:1004FA000008F00072088400700880000130CC0205
:10050A00031CCD03672A4B088400203080004E0864
:10051A004F040319A62ACC01CD014C084B078400CD
:10052A000008203A031D9D2ACC0A0319CD0A922AF3
:10053A000130CC02031CCD034C084B0784002D303C
:04054A008000080025
:10054E0083120313CA01CB014908F2004908F300D4
:10055E00720884000008203A031DBA2A4A084B0488
:10056E00031DBA2AC72A0130CA000030CB00720818
:10057E0084000008F0007308840070088000F30AFD
:10058E007208F100F20A710884000008003A031D97
:08059E00AF2A4908F000080033
:1005A6008F208A110A128000840ABD0A0319BE0A26
:0805B600F003031DD32A080025
:1005BE00831203137008F8007108F000F101F201C4
:1005CE00F301FB01FC019630F300FA01F01FF52A4E
:1005DE00F809F009F80A0319F00AFA177008F10081
:0C05EE007808F000F801F201F22008008B
:1005FA000F2B803083120313C900222BC030C9008D
:10060A00222B9430C900222BD430C900222B8030EF
:10061A00C900222B831203134908013A0319FE2A3F
:10062A004908023A0319032B4908033A0319062B0E
:10063A004908043A0319092B0C2B4A03F00049080C
:10064A00F0077008C9007008D70022203F10CC01BB
:10065A004C084B078400000803193B2B4C084B0736
:10066A0084000008D2002121CC0A2D2B3F14080057
:10067A0083160313881108110812881208138813A5
:10068A0083128811081188130813881208120B2084
:10069A000B200B20881608168815162088110B20A7
:1006AA008815162088110B208815162088110B2012
:1006BA0008128815162088110B2088151620881113
:1006CA00881288178815162088110B208813081697
:1006DA0088151620881108128815162088110B20F3
:1006EA0088151620881108168815162088110B20DF
:1006FA0008128815162088118817081788160816F0
:0C070A008815162088110B203F140800F1
:10071600443083120313A1006930A2007330A30092
:100726007430A4006130A5006E30A6006330A700C7
:100736006530A8002030A9003D30AA002030AB006B
:10074600AC016330AD006D30AE00AF014F30B0008C
:100756007530B1007430B2002030B3006F30B40091
:100766006630B5002030B6005230B7006130B800B0
:100776006E30B9006730BA006530BB00BC013D235E
:100786000130D70022200C30D700222010308316EB
:10079600860008141030831290000818672C033066
:1007A600FB000830FC007730FD00FD0BD82BFC0B5E
:1007B600D82BFB0BD82B0818672C8F018E0106143B
:1007C6000D30FD00FD0BE52B0610061AEB2BE82B72
:1007D6001014061EEF2BEC2B10100F08F100F00181
:1007E6000E08F0040030F1047008C0007108C10062
:1007F600DF22AE30F4004730F5006B30F60084306F
:10080600F700862129217008C0007108C100700810
:10081600013EF20000300318013E7107F300720832
:10082600C0007308C10080307306F000803070028B
:10083600031D1F2C02307202031C502C8030013A1B
:10084600F000803041067002031D2B2C4008903CBE
:10085600031C502C4008C9004108CA004230CB0096
:100866003D224230C900A7220130D70022200130A4
:10087600C9000130CA002130CB00FD220130C90079
:100886000C30CA004230CB00FD220130C9000F30C7
:10089600CA002D30CB00FD225A2C0130D700222071
:1008A6000130C9000130CA003030CB00FD220930CA
:1008B600FB001E30FC00E430FD00FD0B602CFC0B41
:0C08C600602CFB0B602C0000D02B682C79
:02400E004A2F37
:00000001FF
