:040000008A15002835
:06000600000000000800EC
:10000C000F3083120313FC004730FD00FD0B0C284E
:0A001C00FC0B0C2800000000080097
:0E002600213083120313FD00FD0B1728080084
:10003400FB14FB1F2428FF30F300F200F100F00052
:08004400FA0DF20CFF30080078
:08004C00FA1FF2130030080056
:0E005400F201F101F001F801F30100300800A3
:1000620083160313AC1B3828831286113A28831295
:10007200861583162C1B40288312061142288312F0
:1000820006158316AC1A4828831286104A28831252
:10009200861483162C1A50288312061052288312B3
:1000A20006145F18562806165728061286160320CD
:1000B20086128316AC196028831286116228831275
:1000C200861583162C196828831206116A28831252
:1000D20006158316AC1870288312861072288312B4
:1000E200861483162C187828831206107A28831215
:1000F20006145F187E2806167F280612861603202D
:0E01020086125F1C862806208728132008001E
:100110007B15FB1F92280130F300F201F101F00181
:08012000FA0DF20CFF3008009B
:1001280083120313FD01F8017008031900347406E3
:10013800FA00FA1BFD09FB01F41FA428F409F40ACC
:10014800F01FA828F009F00A70087404FA00FA1BD6
:10015800CC287408F802F00D700DF80D7408F80733
:10016800F00D0630FC00700DF80D74087018F802D8
:10017800701CF807F00DFC0BB728701CF8077B18EB
:10018800DA28FD1F0034F009F00AF809F80A0034EB
:10019800F41FD728F01BD4287008F800F001C528F0
:1001A800F001F00A0034F009FB0AAD28F80A7408D7
:1001B8007802031DC528F801F00AF01FC528FF348E
:0201C80008002D
:1001CA0083120313FB017308031D770803193C29E3
:1001DA0072087606FA007708F3077E30031CF928BE
:1001EA00F30203183F29FC28F302031C4229720870
:1001FA00F8007108FC007008FD00F817F6170310E4
:10020A00F201F101F0011830A0007D1C16297408D2
:10021A00F00775080318750FF10776080318760FAB
:10022A00F207F20CF10CF00CF80CFC0CFD0C0310AC
:10023A00A00B0A29F21B2629F80DF00DF10DF20D7B
:10024A00F3037B1B701C3829F81F3829F00A03199D
:10025A00F10A0319F20A031D3829F20CF10CF00C09
:10026A00F30A03193F29FA1FF21300304429013017
:10027A002A20442902301A20442904308820000008
:02028A0008006A
:10028C00831203135F1083162A08AC0031205F140D
:02029C00080058
:10029E007C188529FC1856297C19A4294F29A00100
:1002AE007208031D76297108F2007008F1007808B3
:1002BE00F000F801A0157208031D76297108F200EE
:1002CE007008F100F001A01120167208031D7629A6
:1002DE007108F200F101A01572080319982920087F
:1002EE00F302031D031C9C290310F21B8529F80D34
:1002FE00F00DF10DF20DF30B7C299C297B1B701C6C
:10030E00A029F81FA029F00A0319F10A0319F20A0D
:10031E00031DA029F20CF10CF00CF30A0319A42909
:10032E00A0290130FC002A20A7290230FC008820D9
:10033E00A7290430FC002620A7290830FC001A202B
:04034E0000000800A3
:1003520083120313FA017308031D7A147708031D2D
:10036200FA147A080319F529033A0319C0297A18ED
:10037200BD29F61FF329F129F21FF129F329720889
:100382008039FA00F21376088039F6137A060319D7
:10039200CE297A080319F129F32977087302031980
:1003A200D529031CE929ED29760872020319DC29F3
:1003B200031CE929ED29750871020319E329031CBD
:1003C200E929ED29740870020319F5290318ED29AA
:1003D200FA080319F329F129FA080319F129F32973
:1003E2000314080003100800031403150800080092
:1003F200831603132A08F2007208F100F20A2B088E
:10040200F000AB0A700884000008F0007108840054
:10041200700880007108840000080319112AFD2960
:060422002A08F0000800AA
:10042800A0017208031D292A7108F2007008F10062
:10043800F001A0157208031D292A7108F200F101C4
:10044800A011201672080319372A2008F302031D89
:10045800031C3B2A0310F21B3F2AF00DF10DF20D8D
:10046800F30B2F2A3B2A0130FC002A20422A0230B3
:0E047800FC008820422A0430FC0026200800E8
:100486008312031373087706031D562A720876062D
:10049600031D562A71087506031D562A7008740630
:0C04A600031903150800031108000800EA
:1004B20083120313EF018316A9012008A500210866
:1004C200A6002208A7002308A8002808FF3A031D57
:1004D200742A2708FF3A031D742A2608FF3A031DCF
:1004E200742A2508FF3A031D7E2A2408AA00353003
:1004F200AB00F9210330F000732C01308312ED00C0
:100502008316A71F912A80302706F0007008A700E3
:100512008312ED0A8316240884002D308000A40A79
:100522000030F0002806031DA02A70082706031DCC
:10053200A02A70082606031DA02A2508003A031DDA
:10054200A92A2408AA003A30AB00F921F001732C41
:100552002808FF3A031DB72A2708003A031DB72AC5
:100562002608003A031DB72A2508003A031DC22AAD
:100572002408AA003C30AB00F92183126D08F00078
:10058200732C0030F4000030F5000030F6007F30AC
:10059200F70083162508F0002608F1002708F2006C
:1005A2002808F300A921013003180030F000700878
:1005B2000319F82A83162508F0002608F1002708F7
:1005C200F2002808F3000030F4000030F50020307B
:1005D200F6008230F700E52070088316A500710846
:1005E200A6007208A7007308A800A903C22A8316EE
:1005F2000030F4000030F5002030F6008230F700C1
:100602002508F0002608F1002708F2002808F30068
:10061200A9210130031C0030F000700803192E2BB1
:1006220083162508F0002608F1002708F2002808A2
:10063200F300CD30F400CC30F5004C30F6007B30C6
:10064200F700E52070088316A5007108A60072085D
:10065200A7007308A800A90AF82A8316FF30250507
:10066200F800FF302605F9007F302705FA00003038
:100672002805FB007808F4007908F5007A08F600EE
:100682007B08F700F40DF50DF60DF70D7410003030
:100692002505F00000302605F10000302705F200A4
:1006A200FF302805F3007008A5007108A600720843
:1006B200A7007308A80074082504F0007508260432
:1006C200F10076082704F20077082804F300700886
:1006D200A5007108A6007208A7007308A8007F3061
:1006E2002802F00070088312EE0001308316A80081
:1006F2007008F4002508F0002608F1002708F2002F
:100702002808F300740803198D2BF00DF10DF20D7A
:10071200F30D7010FF3E842B7008A5007108A6002F
:100722007208A7007308A8002808303EF0002408C9
:10073200840070088000A40A80302906F00080300E
:10074200013A7002031CAE2B8030063AF000803072
:1007520029067002031CAE2BB62B240884002E300F
:100762008000A40A01308312EF0083120630EE00EB
:100772006E08003A03191A2C8316A8012508F00006
:100782002608F1002708F2002808F300F00DF10D09
:10079200F20DF30D7010F00DF10DF20DF30D70105E
:1007A2002508F00726080318260FF1072708031863
:1007B200270FF20728080318280FF3077008A5006F
:1007C2007108A6007208A7007308A8002508F000A7
:1007D2002608F1002708F2002808F300F00DF10DB9
:1007E200F20DF30D70107008A5007108A6007208D2
:1007F200A7007308A8002808303EF00024088400EF
:1008020070088000A40A83126F08003A031D172C97
:100812008316A9032908003A031D172C2408840013
:100822002E308000A40A01308312EF008312EE03FF
:10083200B92BFF308316240784000008303A031DC9
:10084200242CA4031A2CFF302407840000082E3A1B
:10085200031D2C2CA4032908003A03196F2C240829
:10086200840065308000A40A80302906F0008030C0
:10087200003A70020318452C240884002D308000B1
:10088200A40A2908003CA90029088312EE0080303E
:10089200093AF000803083162906700203185F2C93
:1008A2000A30F40083126E08F00094203030F00712
:1008B20083162408840070088000A40A0A30F40019
:1008C20083126E08F00094207808F0003030F007B0
:1008D20083162408840070088000A40A2408840077
:0608E2008001F001080096
:1008E800862C803083120313ED00992CC030ED0064
:1008F800992C9430ED00992CD430ED00992C80304F
:10090800ED00992C831203136D08013A0319752C15
:100918006D08023A03197A2C6D08033A03197D2CE5
:100928006D08043A0319802C832C6E03F0006D08BF
:10093800F0077008ED0070088316AC0031205F10D6
:100948008316A001200883126F078400000803198A
:10095800B92C8316200883126F07840000088316B9
:10096800AA0046218316A00AA62C83125F14080049
:1009780083160313861206120610861006118611B6
:10098800831286120612861106118610061006209A
:1009980006200620861406148616032086120620D2
:1009A8008616032086120620861603208612062045
:1009B8000610861603208612062086160320861245
:1009C80086108615861603208612062086110614C0
:1009D8008616032086120610861603208612062025
:1009E8008616032086120614861603208612062011
:1009F8000610861603208612861506158614061418
:0C0A080086160320861206205F140800EA
:060A1400FB15FF30080095
:100A1A008312031372087606A000F801F90173081D
:100A2A007702031C302D7708FD007308F7007D0854
:100A3A00F3007608FD007208F6007D08F2007508DA
:100A4A00FD007108F5007D08F1007408FD007008CA
:100A5A00F4007D08F00077080319A92D7208FA003E
:100A6A00F217F61777087302F7000319632D083097
:100A7A007702031C592DF7007408F9007508F40071
:100A8A007608F500F60108307702031C592DF700A5
:100A9A007408F9007508F400F50108307702031CA0
:100AAA00592D7A08F200A92D77080319632D03102E
:100ABA00F60CF50CF40CF90CF70B5C2DA01F702D3D
:100ACA00F909F409F509F609F90A0319F40A0319E7
:100ADA00F50A0319F60A7908F80774080318740F57
:100AEA00F00775080318750FF10776080318760FD3
:100AFA00F207A01B892D031C992DF20CF10CF00CA6
:100B0A00F80CF30F992DA52D03189D2DF809F0095E
:100B1A00F109F209F80A0319F00A0319F10A03198B
:100B2A00F20A8030FA06A12D0130FC004F21AB2DCC
:100B3A000230FC004F21AB2D0430FC001422AB2DF7
:100B4A000830FC001A20AB2D0030FC000000080021
:100B5A000E3083120313FD00FD0BB12D00000800B7
:0E0B6A00831203134F088A004E088200080011
:0C0B7800831203138030F6060D250800E0
:100B8400831203137408003A031DDD2D7508003A1F
:100B9400031DDD2D7608003A031DDD2D7708003A8C
:100BA400031DDD2DFF30F000FF30F1007F30F20037
:100BB400FF30F300782E83120313770803196C2E89
:100BC400730803196F2E720876068039FA00F2173B
:100BD400F617A0017208F8007108FC007008FD0007
:100BE4007408FD027508031C750FFC027608031CCB
:100BF400760FF802F801FC01FD01031C082E031016
:100C0400F20CF10CF00CF80C0130A0007708F302A0
:100C1400031C122E7E302007F3070318722E172EA2
:100C24007E302007F307031C752E1830FA07FD0DDC
:100C3400FC0DF80DF00DF10DF20DA00D7408F0028D
:100C44007508031C750FF1027608031C760FF20277
:100C5400760DA004201C302E7D143B2E7408F00762
:100C640075080318750FF10776080318760AF2075A
:100C74007D10FA031F307A05031D192E7B1B7D1C82
:100C8400622E0310F00DF10DF20DA00D7408F002A8
:100C94007508031C750FF1027608031C760FF20227
:100CA400760D20040139FD070318FC0A0319F80A1C
:100CB400031D622EF80CFC0CFD0CF30A0319722EB2
:100CC400FA1FF8137808F2007C08F1007D08F000A0
:100CD4000030772E01300A25772E02302A20772E15
:0E0CE40004301A20772E083088200000080007
:100CF200831203137008F8007108F000F101F20189
:100D0200F301FB01FC019630F300FA017008F100D7
:0C0D12007808F000F801F201142208003B
:100D1E00831203139F01C0309F043909F00070083D
:100D2E0083169F051F179F1783126C08F000F00D96
:100D3E007010F00D7010F00D701070089F041F14DD
:100D4E00AD251F151F1DAD2E0000A92E1F101E084C
:100D5E00F100F00183161E08F0040030F1040800C3
:100D6E00B5258A110A128000840ACE0A0319CF0A09
:080D7E00F003031DB72E08006D
:100D8600BC2401308316AC0031200C308316AC0035
:100D96003120F401F501F601F7014A08F0004B088D
:100DA600F1004C08F2004D08F3004322013003190C
:100DB6000030F00070080319092F0130ED000130F2
:100DC600EE002130EF0074240230ED000C30EE000E
:100DD6003130EF0074244A088316A00083124B08B2
:100DE6008316A10083124C088316A20083124D08B5
:100DF6008316A3005030A400592202308312031335
:0E0E0600ED000130EE005030EF0074240800C3
:100E680021308400293083120313F0000A30CE00A9
:080E78000730CF00B726080087
:101000008A1134278A151030831203139000103090
:10101000831685008A11BC248A1501308316AC0022
:101020008A1131208A150C308316AC008A113120C8
:101030008A150130ED000130EE004030EF008A11DA
:1010400074248A15EC018A118F268A158A11792653
:101050008A157008E0007108E1007208E200730868
:10106000E300CD30F400CC30F5001C30F6008130C8
:10107000F7008A11E5208A150030F4000030F500F1
:101080007F30F6008630F7008A11C2258A15700875
:10109000E4007108E5007208E6007308E7007008D4
:1010A000F4007108F5007208F6007308F7000030CC
:1010B000F0000030F1000030F2008030F3008A11BF
:1010C000A9218A15013003180030F00070080319B7
:1010D00005296630F0006630F1002E30F2008630CF
:1010E000F3006408F4006508F5006608F600670878
:1010F000F7008A11E5208A156408F4006508F500F8
:101100006608F6006708F7008A11E5208A1564086A
:10111000F4006508F5006608F6006708F7008A1114
:10112000E5208A157008E8007108E9007208EA00F5
:101130007308EB000030F0006030F1002F30F20057
:101140008930F3006408F4006508F5006608F600CD
:101150006708F7008A11E5208A156408F40065081D
:10116000F5006608F6006708F7008A11E5208A1581
:101170007008F4007108F5007208F6007308F700B3
:101180006808F0006908F1006A08F2006B08F300D3
:101190008A11BC258A157008E8007108E9007208F8
:1011A000EA007308EB000030F0006030F1007130AD
:1011B000F2008A30F3006408F4006508F500660860
:1011C000F6006708F7008A11E5208A156808F40020
:1011D0006908F5006A08F6006B08F7008A110D250A
:1011E0008A150030F400C030F5005A30F6008A301D
:1011F000F7008A11BC258A157008CA007108CB0057
:101200007208CC007308CD001A29CA01CB01CC01A9
:10121000CD018A11C3268A150630FB001330FC006D
:10122000AD30FD00FD0B1229FC0B1229FB0B12291E
:081230000000000022281B2928
:100E140049346E34743465347334693474347934D5
:100E2400203469346E3420346C34753478340034AE
:080E34004C34753478340034AD
:080E3C004E3461344E340034E1
:020E44000F3469
:040E46003034003410
:080E4A0049344E3446340034F3
:100E52006C347534783420346D34653474346534CC
:040E620072340034B2
:02400E004A2F37
:00000001FF
