:020000008A2B49
:0E000600213083120313FD00FD0B07280800B4
:100014000F3083120313FC004730FD00FD0B102842
:0A002400FC0B10280000000008008B
:06002E00000000000800C4
:0E003400F201F101F001F801F30100300800C3
:1000420083120313D71B2728881328288817571BC6
:100052002C2808132D280817D71A3128881232287D
:100062008816571A36280812372808163D183B28D2
:1000720008153C280811881517208811D71943281C
:10008200881344288817571948280813492808173D
:10009200D7184D2888124E28881657185228081249
:1000A200532808163D18572808155828081188158E
:1000B200172088113D1C5F280A20602803200800B1
:0800C200FA1FF21300300800E0
:1000CA0083120313F801F9011030FC00710DF80DC9
:1000DA00F90D7408F8027508031C750FF902031864
:1000EA007D287408F80775080318750FF9070310B7
:0A00FA00F00DF10DFC0B6B2808005F
:100104007B15FB1F8C280130F300F201F101F00193
:08011400FA0DF20CFF300800A7
:0E011C00831203133F088A003E088200080089
:10012A00FB14FB1F9F28FF30F300F200F100F000E0
:08013A00FA0DF20CFF30080081
:06014200FB15FF30080070
:1001480083120313D501053055020318B228550848
:100158005407840020308000D50AA7285508540782
:1001680084008001D50355085407D6000A30F400EE
:10017800F5015208F0005308F10065207808F000F6
:100188007908F1003030F0075608840070088000C4
:100198000A30F400F5015208F0005308F100652018
:1001A8007008D2007108D30000307106031DDE28E4
:1001B80000307006031DE128E328D503B72808009E
:1001C8007B14FB1FEF28F201FA1FFF30F200F10049
:0A01D800F000FA0DF20CFF300800F1
:1001E200A0017208031D06297108F2007008F100CF
:1001F200F001A0157208031D06297108F200F10131
:10020200A01120167208031914292008F302031DF5
:10021200031C18290310F21B1C29F00DF10DF20D1D
:10022200F30B0C2918290130FC001A201F29023077
:0E023200FC0082201F290430FC00612008001F
:10024000831203133D105208D70021203D140800EB
:1002500083120313FB017308031965297208FA005E
:10026000F2178E30F302F31F6829F309F30A0830FE
:100270007302031C4B29F300F10D7208F100F20127
:1002800008307302031C4B29F300F10DF1017308D0
:10029000031D031053297308031953290310F20C8B
:1002A000F10CF30B4E297B1B711C5D29031C5D298E
:1002B000F10A0319F20AF21B7429FA1F7729F209CD
:1002C000F109F10A0319F20A7729F201F1017729FC
:1002D0007B14FB1F7A29F201FA1F7A29FF30F20002
:1002E000F100FA0DF20C7A290130FC007C29003073
:1002F000FC007C29FF30FC00FC0803198029E42065
:0A0300007108F0007208F100080017
:10030A00831203137408003A031DA0297508003AE2
:10031A00031DA0297608003A031DA0297708003A90
:10032A00031DA029FF30F000FF30F1007F30F200FA
:10033A00FF30F3003B2A83120313770803192F2A8D
:10034A0073080319322A720876068039FA00F217FE
:10035A00F617A0017208F8007108FC007008FD0089
:10036A007408FD027508031C750FFC027608031C4D
:10037A00760FF802F801FC01FD01031CCB290310DA
:10038A00F20CF10CF00CF80C0130A0007708F30223
:10039A00031CD5297E302007F3070318352ADA29EA
:1003AA007E302007F307031C382A1830FA07FD0DA0
:1003BA00FC0DF80DF00DF10DF20DA00D7408F00210
:1003CA007508031C750FF1027608031C760FF202FA
:1003DA00760DA004201CF3297D14FE297408F00769
:1003EA0075080318750FF10776080318760AF207DD
:1003FA007D10FA031F307A05031DDC297B1B7D1C47
:10040A00252A0310F00DF10DF20DA00D7408F0026B
:10041A007508031C750FF1027608031C760FF202A9
:10042A00760D20040139FD070318FC0A0319F80A9E
:10043A00031D252AF80CFC0CFD0CF30A0319352AB6
:10044A00FA1FF8137808F2007C08F1007D08F00022
:10045A0000303A2A0130A1203A2A02301A203A2AD8
:0E046A00043095203A2A083082200000080055
:1004780083120313CE01CF014908D0004A08D100E6
:1004880080304A06F00080307002031D4D2A00308B
:10049800490203185B2A0130CE000030CF0049081A
:1004A800003CD0004A08031C013ED101D10250088B
:1004B800D2005108D3004B08D400A4200630CC0049
:1004C8000030CD004D08003C031D6C2A4C08003C50
:1004D8000318872A4C084B07F20001304C02F00041
:1004E8000030031C013E4D02F10070084B078400E8
:1004F8000008F00072088400700880000130CC0207
:10050800031CCD03662A4B088400203080004E0867
:100518004F040319A52ACC01CD014C084B078400D0
:100528000008203A031D9C2ACC0A0319CD0A912AF7
:100538000130CC02031CCD034C084B0784002D303E
:040548008000080027
:10054C0083120313CA01CB014908F2004908F300D6
:10055C00720884000008203A031DB92A4A084B048B
:10056C00031DB92AC62A0130CA000030CB0072081C
:10057C0084000008F0007308840070088000F30AFF
:10058C007208F100F20A710884000008003A031D99
:08059C00AE2A4908F000080036
:1005A4008E208A110A128000840ABE0A0319BF0A27
:0805B400F003031DD22A080028
:1005BC00831203137008F8007108F000F101F201C6
:1005CC00F301FB01FC019630F300FA01F01FF42A51
:1005DC00F809F009F80A0319F00AFA177008F10083
:0C05EC007808F000F801F201F12008008E
:1005F8000E2B803083120313C900212BC030C90091
:10060800212B9430C900212BD430C900212B8030F4
:10061800C900212B831203134908013A0319FD2A43
:100628004908023A0319022B4908033A0319052B12
:100638004908043A0319082B0B2B4A03F000490810
:10064800F0077008C9007008D70021203D10CC01C0
:100658004C084B078400000803193A2B4C084B0739
:1006680084000008D2002021CC0A2C2B3D1408005D
:1006780083160313881108110812881208138813A7
:1006880083128811081188130813881208120A2087
:100698000A200A20881608168815172088110A20AB
:1006A8008815172088110A208815172088110A2014
:1006B80008128815172088110A2088151720881114
:1006C800881288178815172088110A208813081699
:1006D80088151720881108128815172088110A20F4
:1006E80088151720881108168815172088110A20E0
:1006F80008128815172088118817081788160816F1
:0C0708008815172088110A203D140800F5
:100714004F3083120313A1007530A2007430A3007C
:100724002030A4006F30A5006630A6002030A7005A
:100734005230A8006130A9006E30AA006730AB00C7
:100744006530AC00AD016330AE006D30AF00B00178
:100754004430B1006930B2007330B3007430B40077
:100764006130B5006E30B6006330B7006530B80054
:100774002030B9003D30BA002030BB00BC013C231E
:100784000130D70021200C30D700212010308316EF
:10079400860001308312D7002120103090008F0191
:1007A4008E0106140630FD00FD0BD62B000006104A
:1007B400061ADD2BDA2B1014061EE12BDE2B10108B
:1007C4000F08F100F0010E08F0040030F104700885
:1007D400C0007108C100DE22AE30F4004730F500DD
:1007E4006B30F6008430F700852128217008C000A2
:1007F4007108C1007008013EF20000300318013E88
:100804007107F3007208C0007308C10080307306DA
:10081400F00080307002031D112C02307202031CA0
:10082400422C8030013AF000803041067002031DF2
:100834001D2C4008903C031C422C4008C900410870
:10084400CA004230CB003C224230C900A62201300B
:10085400D70021200130C9000130CA003130CB005B
:10086400FC220130C9000C30CA004230CB00FC220B
:100874000130C9000F30CA002E30CB00FC224C2CB2
:100884000130D70021200130C9000130CA002130D5
:10089400CB00FC220530FB000F30FC00F130FD00E2
:1008A400FD0B522CFC0B522CFB0B522CD12B592C34
:02400E004A2F37
:00000001FF
